:1000000059C000007CC000007AC0000078C0000029
:1000100076C0000074C0000072C0000070C0000014
:100020006EC000006CC000006AC0000068C0000024
:1000300066C0000064C0000062C0000060C0000034
:1000400030C100005CC000006DC300009DC3000013
:1000500056C0000054C0000052C0000050C0000054
:1000600047C600004CC0000000000008000201006C
:100070000003040700000000000000000102040863
:100080001020408001020408102001020408102002
:10009000040404040404040402020202020203032E
:1000A0000303030300000000250028002B00980034
:1000B000E9039A0511241FBECFEFD8E0DEBFCDBF04
:1000C00011E0A0E0B1E0EAE9FFE002C005900D9286
:1000D000A236B107D9F712E0A2E6B1E001C01D9245
:1000E000AC3CB107E1F710E0C4EBD0E003C02297CD
:1000F000FE014DD7CE3AD107D1F702D04CC780CF01
:1001000064D18CE092E0E1D426E040E855E260E082
:1001100070E08FE691E0A2D280E091E019D080E01B
:1001200091E08FD064E670E080E090E029D1F7CFD5
:1001300080916401909165019093630180936201C5
:100140000895DC01ED91FC910190F081E02D09947E
:10015000CF93DF93EC0165E271E08FE691E0A7D3E6
:1001600068818CE092E0C8D460E170E08CE092E0BD
:10017000E8DF6A8124E0629FB0011124898120E1D7
:10018000829FC0011124682B792B8CE092E0D9DF8B
:100190008CE092E0CDD468818CE092E0ADD461E156
:1001A00070E08CE092E0CDDF6C8184E0689FB0016C
:1001B00011248B8120E1829FC0011124682B792BAF
:1001C0008CE092E0BEDF8CE092E0DF91CF91B0C492
:1001D0000F931F93CF93DF9300D0CDB7DEB7182FC7
:1001E000062F682F8CE092E087D4602F8CE092E09D
:1001F0002ED48CE092E09CD419821A82612F70E098
:1002000042E050E08CE092E075D48E010F5F1F4F0A
:100210008CE092E0C1D3892B39F08CE092E0C4D31A
:10022000F80181938F01F4CF898190E0982F88277E
:100230002A81822B0F900F90DF91CF911F910F9108
:1002400008950F931F93CF93DF93EC0162E28881AF
:10025000BFDF9C8B8B8B64E28881BADF9E8B8D8B9A
:1002600066E28881B5DF988F8F8B8E010D5E1F4F00
:100270006996F801619171918F014AE050E08FE633
:1002800091E085D36EE271E08FE691E00CD30C171C
:100290001D0779F78FE691E0DF91CF911F910F91C4
:1002A00003C31F920F920FB60F9211242F933F9307
:1002B0008F939F93AF93BF93809167019091680153
:1002C000A0916901B0916A013091660123E0230F8A
:1002D0002D3720F40196A11DB11D05C026E8230F7E
:1002E0000296A11DB11D2093660180936701909332
:1002F0006801A0936901B0936A0180916B019091AC
:100300006C01A0916D01B0916E010196A11DB11D0E
:1003100080936B0190936C01A0936D01B0936E017B
:10032000BF91AF919F918F913F912F910F900FBEF1
:100330000F901F9018953FB7F89480916B019091A2
:100340006C01A0916D01B0916E0126B5A89B05C00E
:100350002F3F19F00196A11DB11D3FBFBA2FA92F44
:10036000982F8827820F911DA11DB11DBC01CD01C1
:1003700042E0660F771F881F991F4A95D1F70895AD
:10038000CF92DF92EF92FF92CF93DF936B017C01CC
:10039000D2DFEB01C114D104E104F10479F0D2D52C
:1003A000CADF6C1B7D0B683E7340A0F381E0C81A66
:1003B000D108E108F108C851DC4FECCFDF91CF91B3
:1003C000FF90EF90DF90CF900895789484B582608D
:1003D00084BD84B5816084BD85B5826085BD85B5E9
:1003E000816085BDEEE6F0E0808181608083E1E898
:1003F000F0E01082808182608083808181608083D0
:10040000E0E8F0E0808181608083E1EBF0E08081D2
:1004100084608083E0EBF0E0808181608083EAE7A4
:10042000F0E080818460808380818260808380812D
:10043000816080838081806880831092C1000895EC
:10044000833081F028F4813099F08230A1F0089552
:100450008730A9F08830B9F08430D1F480918000E1
:100460008F7D03C0809180008F77809380000895F6
:1004700084B58F7702C084B58F7D84BD0895809147
:10048000B0008F7703C08091B0008F7D8093B00063
:1004900008951F93CF93DF93282F30E0F901E85997
:1004A000FF4F8491F901E458FF4FD491F901E057CF
:1004B000FF4FC491CC23C1F0162F8111C1DFEC2F67
:1004C000F0E0EE0FFF1FEC55FF4FA591B4918FB7F1
:1004D000F894111105C09C91ED2FE095E92302C01D
:1004E000EC91ED2BEC938FBFDF91CF911F9108958D
:1004F000FC01918D228D892F90E0805C9F4F821BA3
:1005000091098F7399270895FC01918D828D981719
:1005100031F0828DE80FF11D858D90E008958FEF09
:100520009FEF0895FC01918D828D981761F0828D67
:10053000DF01A80FB11D5D968C91928D9F5F9F7317
:10054000928F90E008958FEF9FEF0895FC01848DC6
:10055000DF01A80FB11DA35ABF4F2C91848D90E0ED
:1005600001968F739927848FA689B7892C93A089C8
:10057000B1898C9180648C93938D848D981306C07F
:100580000288F389E02D80818F7D80830895CF9349
:10059000DF93EC01888D8823C1F0EA89FB89808193
:1005A00085FD05C0A889B9898C9186FD0EC00FB65E
:1005B00007FCF5CF808185FFF2CFA889B9898C919E
:1005C00085FFEDCFCE01C2DFE8CFDF91CF91089557
:1005D000EF92FF920F931F93CF93DF93EC0181E093
:1005E000888F9B8D8C8D981305C0E889F98980814F
:1005F00085FD23C0F62E0B8D10E00F5F1F4F0F738C
:100600001127E02E8C8DE8120BC00FB607FCFACF35
:10061000E889F989808185FFF5CFCE0197DFF2CF98
:100620008B8DFE01E80FF11DE35AFF4FF0820B8F17
:10063000EA89FB898081806207C0EE89FF89608337
:10064000E889F98980818064808381E090E0DF918E
:10065000CF911F910F91FF90EF900895CF92DF926D
:10066000EF92FF921F93CF93DF93EC016A017B011E
:10067000122FE889F98982E08083411581EE5807BD
:1006800061057105A9F060E079E08DE390E0A701D4
:10069000960159D4DA01C9010197A109B109B695AA
:1006A000A79597958795AC01411580E15807A0F073
:1006B000E889F989108260E874E88EE190E0A7018A
:1006C000960141D4BA01A90141505109610971094A
:1006D0007695679557954795EC85FD855083EE8512
:1006E000FF854083188EEC89FD891083EA89FB8998
:1006F000808180618083EA89FB8980818860808332
:10070000EA89FB89808180688083EA89FB8980810E
:100710008F7D8083DF91CF911F91FF90EF90DF90CD
:10072000CF9008951F920F920FB60F9211242F931E
:100730008F939F93EF93FF93E0917F01F09180015E
:100740008081E0918501F091860182FD12C0908147
:10075000809188018F5F8F7320918901821751F0FA
:10076000E0918801F0E0E159FE4F958F8093880178
:1007700001C08081FF91EF919F918F912F910F90F8
:100780000FBE0F901F9018951F920F920FB60F92E9
:1007900011242F933F934F935F936F937F938F9386
:1007A0009F93AF93BF93EF93FF938FE691E0CEDEDD
:1007B000FF91EF91BF91AF919F918F917F916F9139
:1007C0005F914F913F912F910F900FBE0F901F900F
:1007D0001895EFE6F1E01382128288EE93E0A0E034
:1007E000B0E084839583A683B78384E391E091830B
:1007F000808385EC90E09587848784EC90E09787F0
:10080000868780EC90E0918B808B81EC90E0938BDD
:10081000828B82EC90E0958B848B86EC90E0978BBA
:10082000868B118E128E138E148E0895CF92DF92C6
:10083000EF92FF920F931F93CF93DF936C01EB0125
:100840007B01E40EF51E00E010E0CE15DF0561F03F
:100850006991D601ED91FC910190F081E02DC601E6
:100860000995080F191FF1CFC801DF91CF911F9192
:100870000F91FF90EF90DF90CF9008956115710573
:1008800079F0FB0101900020E9F73197AF01461B99
:10089000570BDC01ED91FC910280F381E02D09946E
:1008A00080E090E00895EACF60E471E0E7CF0F9335
:1008B0001F93CF93DF93EC01E1DF8C01CE01F4DFD6
:1008C000800F911FDF91CF911F910F9108958F920B
:1008D0009F92AF92BF92CF92DF92EF92FF920F93CF
:1008E0001F93CF93DF93CDB7DEB7A1970FB6F894E0
:1008F000DEBF0FBECDBF6C01142FE52FCB01022F41
:1009000019A2223008F40AE07E0121E2E20EF11C75
:10091000802E912CA12CB12C612F7E2FA50194014A
:1009200012D3029F1019112481E0E81AF1081A303D
:1009300014F4105D01C0195CF7011083122FE32F2E
:10094000CA01232B242B252B39F7B701C60196DFCB
:10095000A1960FB6F894DEBF0FBECDBFDF91CF9149
:100960001F910F91FF90EF90DF90CF90BF90AF90CD
:100970009F908F9008952115310541F4DC01ED9190
:10098000FC910190F081E02D642F0994A0CF9A0191
:10099000AB0160E070E0EFCF80913C0290E02091ED
:1009A0003D02821B9109089590913D0280913C0285
:1009B000981750F4E92FF0E0E25CFD4F208130E021
:1009C0009F5F90933D0202C02FEF3FEFC901089552
:1009D000E0913D0280913C02E81730F4F0E0E25CE7
:1009E000FD4F808190E008958FEF9FEF0895089567
:1009F000CF92DF92EF92FF920F931F93CF93DF93EB
:100A00007C01262F972F8A0180911802882391F06C
:100A1000C62FD72F6E01C40ED51ECC15DD0569F08B
:100A20006991D701ED91FC910190F081E02DC70112
:100A30000995F3CF642F822F32D1C801DF91CF9176
:100A40001F910F91FF90EF90DF90CF900895CF937B
:100A5000DF931F92CDB7DEB769832091180222235E
:100A6000D1F020911902203240F021E030E0FC0169
:100A70003383228380E090E014C080911A02E82F33
:100A8000F0E0E55EFD4F998190838F5F80931A02BD
:100A90008093190204C061E0CE01019600D181E08B
:100AA00090E00F90DF91CF910895FC0113821282A4
:100AB00088EE93E0A0E0B0E084839583A683B783BB
:100AC00085E591E091838083089510923D02109214
:100AD0003C0210921A02109219022FC0862F413246
:100AE00008F040E26EE372E044D010923D02809341
:100AF0003C02089521E0F2CF81E0809318026093D8
:100B00003B0210921A021092190208950F93062FB9
:100B100021E0409119026BE172E080913B026DD0BF
:100B200010921A0210921902109218020F91089551
:100B300061E0ECCF8CE092E0B8CF1092CB0281E084
:100B40008093C9021092C80261E082E1A2DC61E0F8
:100B500083E19FDCE9EBF0E080818E7F8083808100
:100B60008D7F808388E48093B80085E48093BC0007
:100B70000895413208F03FC09091CB029111FCCF13
:100B800091E09093CB022093C9022FEF20935E0255
:100B90001092A302240F2093A2029093CA02909174
:100BA000CA02880F892B8093CA028091C8028130C3
:100BB00041F41092C8028091CA028093BB0085EC78
:100BC00001C085EE8093BC008091CB028130E1F3BF
:100BD0008091A302841710F44091A30224EA32E02A
:100BE000FB01D9018A2F821B841718F48D91819300
:100BF000F9CF842F089580E008950F93413208F0D3
:100C000046C09091CB029111FCCF32E03093CB02E1
:100C10000093C9023FEF30935E021092A30240930B
:100C2000A202FB0164EA72E0DB013A2F361B3417A3
:100C300018F431913D93F9CF1092CA023091CA0253
:100C4000880F832B8093CA028091C802813041F4BF
:100C50001092C8028091CA028093BB0085EC01C04B
:100C600085EE8093BC00222321F08091CB0282305C
:100C7000D1F380915E028F3F79F080915E028032E5
:100C800041F080915E02803331F094E005C091E044
:100C900003C092E001C093E0892F0F910895613263
:100CA00098F42091CB02243089F460938002FC01F7
:100CB00022E832E0D9018A2F821B861718F481912D
:100CC0008D93F9CF80E0089581E0089582E0089542
:100CD00085ED8093BC008091BC0084FDFCCF109218
:100CE000CB02089585EC8093BC001092CB0208954E
:100CF0001F920F920FB60F9211242F933F934F9391
:100D00005F936F937F938F939F93AF93BF93EF9373
:100D1000FF938091B900887F803609F49CC068F504
:100D2000883209F45BC090F4803109F454C038F47F
:100D3000882309F4F3C0883009F44DC0F2C088312B
:100D400009F44CC0803209F45DC0EBC0803409F472
:100D500068C048F4803309F455C0883309F0E1C015
:100D600080935E02A7C0803509F44FC0883509F42E
:100D70005DC0883409F0D5C0D3C0883909F4C4C037
:100D8000A8F4883709F467C038F4883609F463C0DA
:100D9000803709F460C0C5C0883809F4B5C080390F
:100DA00009F45FC0803809F0BCC05BC0803B09F427
:100DB00083C038F4803A09F466C0883A09F47CC0EC
:100DC000B0C0803C09F4A4C0883C09F4A1C0883BB1
:100DD00009F487C0A6C08091CA0210C09091A302F6
:100DE0008091A202981770F5E091A30281E08E0F26
:100DF0008093A302F0E0EC55FD4F80818093BB000F
:100E000085EC83C080935E028BC0E091A30281E0F9
:100E10008E0F8093A3028091BB00F0E0EC55FD4F54
:100E200080839091A3028091A2026BC0E091A30203
:100E300081E08E0F8093A3028091BB00F0E0EC551F
:100E4000FD4F80838091C90281116AC081E0809347
:100E5000C80284EA5EC083E08093CB0210925F02F6
:100E6000CFCF80915F02803208F04EC0E0915F02E8
:100E700081E08E0F80935F028091BB00F0E0E05A2A
:100E8000FD4F8083BDCF80915F02803230F4E091CE
:100E90005F02F0E0E05AFD4F10821ADF60915F02BE
:100EA00070E0E091C402F091C50280E692E00995FD
:100EB00010925F0217DF35C084E08093CB0210925E
:100EC000810210928002E091C602F091C70209955A
:100ED00080918002811105C081E080938002109290
:100EE0008202E091810281E08E0F80938102F0E026
:100EF000EE57FD4F80818093BB00909181028091DD
:100F00008002981708F47CCF85E88093BC0009C064
:100F100085EC8093BC001092CB0203C010925E025D
:100F2000D7DEFF91EF91BF91AF919F918F917F910C
:100F30006F915F914F913F912F910F900FBE0F9046
:100F40001F9018950895A1E21A2EAA1BBB1BFD0144
:100F50000DC0AA1FBB1FEE1FFF1FA217B307E40798
:100F6000F50720F0A21BB30BE40BF50B661F771FF0
:100F7000881F991F1A9469F76095709580959095D0
:100F80009B01AC01BD01CF010895EE0FFF1F05903D
:0A0F9000F491E02D0994F894FFCFCE
:100F9A006A070107039EDE9C3B295C8F3D00000027
:100FAA000000000000000000000000000000000037
:100FBA000000000000696D7520696E6974002000E8
:100FCA0000000000E8021604780292028402C702B6
:100FDA000D0A006E616E00696E66006F7666002EFD
:100FEA0000000000002705F804CC04D404E804F744
:020FFA000400F1
:00000001FF
